:020000040002F8
:10600000D85F0020156302001D6302001F630200B9
:1060100021630200236302002563020000000000E8
:1060200000000000000000000000000027630200E4
:1060300029630200000000002B6302002D630200B0
:10604000A96602002F630200A96A02002F63020002
:106050002F6302002F630200E16402002F6302003D
:106060002F6302002F6302002F6302002F630200E0
:106070002F6302002F6302002F6302002F630200D0
:106080002F630200016702002F6302002F630200EA
:10609000856702002F630200896702002F630200F8
:1060A0002F6302002F6302002F6302002F630200A0
:1060B0002F6302002F6302000000000000000000B8
:1060C0002F6302002F6302002F6302002F63020080
:1060D0002F6302002F6302002F6302000000000004
:1060E00000000000000000000000000000000000B0
:1060F00000000000000000000000000000000000A0
:10610000000000000000000000000000000000008F
:10611000000000000000000000000000000000007F
:10612000000000000000000000000000000000006F
:10613000000000000000000000000000000000005F
:10614000000000000000000000000000000000004F
:10615000000000000000000000000000000000003F
:10616000000000000000000000000000000000002F
:10617000000000000000000000000000000000001F
:10618000000000000000000000000000000000000F
:1061900000000000000000000000000000000000FF
:1061A00000000000000000000000000000000000EF
:1061B00000000000000000000000000000000000DF
:1061C00000000000000000000000000000000000CF
:1061D00000000000000000000000000000000000BF
:1061E00000000000000000000000000000000000AF
:1061F000000000000000000000000000000000009F
:10620000DFF80CD000F02EF900480047B18D0200F5
:10621000D85F002000B583B002900091019244F253
:10622000010071466A4600F07BFD03B000BD00002E
:1062300030B4044654E8000F0D4644E80053002BE8
:10624000F8D1156030BC704730B4044654E8000FF4
:1062500040EA010544E80053002BF7D1156030BC3B
:10626000704730B4044654E8000F00EA010544E8E2
:106270000053002BF7D1156030BC704730B4044692
:1062800054E8000F80EA010544E80053002BF7D1E1
:10629000156030BC704730B4044654E8000F00EB82
:1062A000010544E80053002BF7D1156030BC70475E
:1062B00030B4044654E8000FA0EB010544E8005355
:1062C000002BF7D1156030BC704770B404464FF016
:1062D000000054E8006F0D68AE4207BF44E8002399
:1062E000012044E800630E60002B1CBF0020F0E793
:1062F00070BC704730B4044654E8000F88422CBF8D
:10630000451A054644E80053002BF5D1156030BC12
:10631000704700000648804706480047FEE7FEE752
:10632000FEE7FEE7FEE7FEE7FEE7FEE7FEE7FEE745
:106330008D670200016202002DE9F05F0546002032
:1063400092469B4688460646814640241BE02846E6
:1063500041464746224600F074F853465A46C01A52
:10636000914110D311461846224600F016F82D1A16
:1063700067EB01084F4622460120002100F00DF88E
:1063800017EB00094E41201EA4F10104DFDC484652
:1063900031462A464346BDE8F09F202A04DB203AD6
:1063A00000FA02F1002070479140C2F1200320FA68
:1063B00003F319439040704700487047FCC5020042
:1063C00040EA01039B0703D009E008C9121F08C077
:1063D000042AFAD203E011F8013B00F8013B521EF7
:1063E000F9D27047D2B201E000F8012B491EFBD26E
:1063F00070470022F6E710B513460A4604461946D0
:10640000FFF7F0FF204610BD421C10F8011B0029C9
:10641000FBD1801A704730B504460020034600E0E7
:106420005B1C934203D2E05CCD5C401BF8D030BDD6
:10643000034611F8012B00F8012B002AF9D1184668
:106440007047202A04DB203A21FA02F0002170472D
:1064500021FA02F3D040C2F12002914008431946CC
:1064600070470000064C074D06E0E06840F001036D
:1064700094E8070098471034AC42F6D3FFF7C4FE07
:10648000B0CE0200D0CE020070B58C1810F8015BBF
:1064900015F0070301D110F8013B2A1106D110F8BD
:1064A000012B03E010F8016B01F8016B5B1EF9D1C1
:1064B0002B0705D40023521E0DD401F8013BFAE747
:1064C00010F8013BCB1A921C03E013F8015B01F8B2
:1064D000015B521EF9D5A142D8D3002070BD000047
:1064E0002DE9F04700268AB0DFF85091B0464FF40E
:1064F0008075012437460696284603F0D1FA38B154
:10650000D9F80403204203D0284603F0BFFA2643FB
:106510002D1D64007F1CADB2082FEDD34FF4BE7467
:10652000204603F0BDFA48B1204603F0AFFA46F02A
:10653000004606AA0121002003F094FA404D16F00F
:10654000FF0F15D00127002437420DD009EB84013D
:10655000D1F81005D1F81015C0F3042055F8242007
:10656000C1F3014102B190477F00641C082CEBD3BA
:10657000002E5FDA4FF0FF30CDF8108054E028197C
:1065800010F8507F90F9000027F0C008401C3BD065
:1065900007A9404602F096FD10B34FEA971940460E
:1065A00001F00CFF55F820701FB1B9F1030F03D0B3
:1065B00006E0B9F1030F27D104A9404602F08AFD95
:1065C0004FF0A04101EB8800D0F8000706A9C0F306
:1065D000014A404602F076FD18B1BAF1020F03D02D
:1065E00012E0BAF1030F0FD1B9F1030F08D1BAF1DC
:1065F000020F1DD00221404603F018FA761CF6B2B5
:1066000017B149464046B847641C042CB7D3002E46
:1066100010D06A460121002003F024FA0699009860
:10662000884207D006900498002634460790A6E7D3
:106630000321E0E70AB0BDE8F087000000600040F9
:106640006035002000F01F020121914040098000C8
:1066500000F1E020C0F88012704700F01F02012115
:1066600091404009800000F1E020C0F8001170471F
:1066700000F01F02012191404009800000F1E0205C
:10668000C0F8001270474907090E002806DA00F02A
:106690000F0000F1E02080F8141D704700F1E020A9
:1066A00080F800147047000070B54FF480763046D3
:1066B00002F0B0FF114CB50560B1304602F0B1FFF9
:1066C0000120C5F80803607920B9012060712168B4
:1066D000002088474FF48276304602F09BFF002866
:1066E0000AD0304602F09DFF0220C5F80803216859
:1066F000BDE870400120084770BD0000EC2C002070
:1067000007480021C0F84011C0F84411C0F84811F2
:10671000C0F84C11C0F80011C0F8041105F01ABA05
:106720000010014000F0C6B970B50E46144900EBE8
:10673000400001EBC0051446E86A183520B1012875
:106740000FD0022805D113E0284600F0E7F9A04257
:1067500001D2002411E022463146284600F016FA04
:106760000BE0284600F0DAF9A042F4D20446F2E742
:106770003146284600F0DDF90446204670BD000091
:106780004C3D002005F034B903F03ABFF0B5B548F0
:106790000023021D0178101D01254FF080540629A9
:1067A0000BD11678360708D10678C6F30316032EE8
:1067B00006D0042E04D0052E02D0062907D00EE004
:1067C000B4F82463A84FC6F304263E6002E01678AE
:1067D000360704D10678C6F30316032E02D0062925
:1067E00004D00FE0A24FA14E7E670EE01678360768
:1067F00008D10678C6F30316032E06D0042E04D063
:10680000052E02D0062907D00EE0D4F84462994F35
:10681000C6F342363E6002E01678360704D10678A9
:10682000C6F30316032E02D0062906D011E0924EBD
:10683000376827F0807737600EE01678360708D182
:106840000678C6F30316032E06D0042E04D0052EB8
:1068500002D006290AD011E04FF08046C6F80C316C
:10686000C6F81031834E361F336002E016783607C3
:1068700004D10678C6F30316032E02D0062905D0EC
:106880000CE07C4F032664373E600AE0167836073A
:1068900004D10678C6F30316032E02D006290DD0C4
:1068A00014E0764F05263E60744E78363560734EA0
:1068B000083633603F263F1D3E6002E016783607FB
:1068C00004D10678C6F30316052E02D0062957D048
:1068D00062E06B4E36686B4F3E60694E361D36681F
:1068E0003F1D3E60664E083636683F1D3E60644E72
:1068F0000C3636683F1D3E60614E103636683F1DCF
:106900003E605F4E143636683F1D3E605C4E183662
:1069100036685C4F20373E60594E1C3636683F1D46
:106920003E60574E203636683F1D3E60544E24363A
:1069300036683F1D3E60524E283636683F1D3E6029
:106940004F4E2C3636683F1D3E604D4E3036366811
:106950004C4F40373E604A4E343636683F1D3E60ED
:10696000474E383636683F1D3E60454E3C363668E9
:106970003F1D3E60424E403636683F1D3E6002E09D
:106980001678360708D10678C6F30316032E06D00C
:10699000042E04D0052E02D0062907D019E0D4F821
:1069A0005812394A01F04F01116002E011780907CD
:1069B0000FD10078C0F30310032803D0042801D0BE
:1069C000052806D131480168C90702D06FF00101DE
:1069D0000160D4F83001062808D1D4F83401062823
:1069E00004D12B48016841F4806101602248743869
:1069F000016841F470010160BFF34F8FBFF36F8FE7
:106A00004FF01021D1F80002002803DBD1F8040276
:106A1000002822DA1F4A15601F480468002CFCD0A9
:106A20001524C1F800420568002DFCD0C1F80442CD
:106A300001680029FCD0136001680029FCD0BFF375
:106A40004F8F0D48F0380168144A01F4E06111439A
:106A50000160BFF34F8F00BFFDE712491048086087
:106A6000F0BD0000E00F00F0403501400DF0ADBA80
:106A700000C007403C050040FCED00E0105600401F
:106A80000404001020C50040E40E00400004004053
:106A90003C17004004E5014000E401400400FA0511
:106AA0000090D003BC2D0020014800680047000082
:106AB000F42C002010B5124C02202061606111A05E
:106AC000A06104F17800E0614FF4007020620020C2
:106AD000A06260620BA1A164E06204F51E71E16432
:106AE0001021A065C4E91410E06509A1E01DFFF7BD
:106AF0009FFC08A12046FFF79BFC2020A07110BD41
:106B00004C3D00205465726D696E616C00000000A0
:106B10005254540053454747455200000269C1682A
:106B20008A4203D88068401A104400E0501A401E80
:106B300070472DE9F047C4681746894606464FF06E
:106B400000083069A04201D9051B02E0B168201A93
:106B50000D1AB0686D1E001BA84200D80546BD4244
:106B600000D33D4670682A4620444946FFF728FC7A
:106B7000B0687F1B2C44A844A944A04200D1002443
:106B8000F460002FDDD14046BDE8F0872DE9F041EB
:106B900004468846D4E90207C51BE16860681646CA
:106BA0000844B54206D94146FFF70AFCB819E0602F
:106BB000BDE8F0812A464146FFF702FC761B08EB50
:106BC000050132466068FFF7FBFBE660F0E7000076
:106BD000014A024900F026B893880200582D00208F
:106BE00002E008C8121F08C1002AFAD17047704796
:106BF000002001E001C1121F002AFBD170470000F4
:106C00000121202803DA81400548014003E04028A3
:106C100002DA2038814009B1012070470020704716
:106C2000FC06FFBD2DE9F04116460F46044600253F
:106C300003E03946B047641C6D1C20780028F8D169
:106C40002846BDE8F08110B501220221002001F0A4
:106C500085F908B1072810D107220221012001F08F
:106C60007DF908B1072808D100210A22084601F061
:106C700075F908B1072800D1002010BD022001F0ED
:106C80007DB8000070B50024064D06E0686801215B
:106C900010F8340003F0B4FD641C28788442F5D366
:106CA000002070BD002D0020F8B515460C460646A4
:106CB000052A01D20720F8BD03F09EFE18B903F0A3
:106CC00063FE0028F7D1124900224E600C708D60DF
:106CD000C1E90422C1E906220E4D0DE006EBC40015
:106CE0002968009181788DF8011000780A4A694678
:106CF00003F0D8FD0028DED1641EE4B2EED2BDE878
:106D0000F84004480021054A001D00F015B90000B4
:106D1000002D002004C302007D8902005986020074
:106D2000FEB515460E46074672B603F05FF900BF82
:106D300002F086FF0028FBD12249234A0120891A4C
:106D4000C90800EB0144012F23D06FF4805038189C
:106D500022D0B0F5405F24D06FF44051C84206D134
:106D60002B88204619A16A6803F08FF804E02046BA
:106D700032461DA103F082F821480068C00700D008
:106D800000BE2A4603B031463846BDE8F04000F068
:106D900079B820461BA101E0204622A103F06AF841
:106DA000EAE7A86803F0C8FC0346D5E90001CDE98D
:106DB00000100296204624A1AA6803F06EF820462F
:106DC0002BA1EBE738CF0200E0CE02004153534540
:106DD0005254494F4E204641494C4544206174204D
:106DE00025733A2575000000554E4B4E4F574E20E7
:106DF0004641554C54206174203078253038580075
:106E0000F0ED00E0534F46544445564943453A207F
:106E1000415353455254494F4E204641494C4544F5
:106E200000000000534F46544445564943453A201C
:106E3000494E56414C4944204D454D4F52592041F1
:106E400043434553530000004552524F522025758D
:106E5000205B25735D2061742025733A25750D0A2A
:106E600050432061743A2030782530387800000093
:106E7000456E64206F66206572726F722072657055
:106E80006F72740008B501238DF800309DF8003052
:106E9000144B186059609A606FF48041401807D015
:106EA00001280FD1DA60D86800889861D86807E0B7
:106EB0001A611869806858611869006898611869D2
:106EC0004068D861186858689868D868186958691F
:106ED0009869D86972B600BF9DF800000028FBD100
:106EE00062B608BD2C36002010B58268C368934294
:106EF00003D001F0BBFC002010BD052010BD29B15E
:106F000012B1531E134203D0092070470E20704760
:106F10000160838000218160C1600846704710B520
:106F20008268C3689A1A83889A4203D801F0A8FC41
:106F3000002010BD042010BD084B9B7823B12AB15E
:106F400020B10068037C1BB1082070470720704700
:106F50000023037441744261184670474C36002088
:106F600070B504F0C1FA104800240B21047044707D
:106F70000E4D817014206C602C706C70FFF762FBFA
:106F800006211420FFF77FFB1420FFF766FB08485B
:106F9000046006211120FFF776FB0548001F0068FA
:106FA000A860002070BD00004C360020202D00207D
:106FB000081501402DE9FC47DFF8789099F8023078
:106FC00073B368B3052902D20720BDE8FC87436983
:106FD00033B3437C012B25D0002704460025884687
:106FE00016468DF80050684600F0EEF801A805F04E
:106FF000CDF8C8B1012101700F4944600968C0E9AA
:107000000218C0E904769DF8040089F801009DF893
:10701000000000F0FDF81420FFF72AFB2846D4E713
:107020000820D2E70F46D8E704259DF8000000F0BD
:10703000EFF8F3E74C360020041501400649897843
:1070400039B130B1416921B100210174022104F04C
:107050005DBD0820704700004C36002070B50B4E17
:1070600001460B48B578FFF73FFF04465DB10020AD
:10707000B070711C0122C81D02F044FB18B105A2BA
:10708000CE21FFF7C7F8204670BD0000342D002048
:10709000583700202E2E5C2E2E5C2E2E5C2E2E5C61
:1070A0002E2E5C2E2E5C636F6D706F6E656E74732A
:1070B0005C6C69627261726965735C756172745C43
:1070C0006170705F756172745F6669666F2E6300D0
:1070D000F0B5244E89B01F460D00044672603FD0C3
:1070E000A888296882B22048FFF709FF002835D117
:1070F000A889A96882B21C481030FFF700FF002859
:107100002CD1202219496846FFF75AF96069069088
:10711000207C00B101208DF814008DF81C70607C7B
:1071200000B10E208DF81500E0680290A068039071
:1071300020680190606800900A480D4A694608304E
:1071400002F0ACFA002809D1B0702068401C05D0CC
:1071500004490122491CC81D02F0D4FA09B0F0BD4F
:107160000720FBE7342D00205837002018C3020009
:10717000BDBD020010B501461048FFF7D0FE040067
:1071800019D10F480F4A0178515C19B1001D03F065
:10719000B5FE02E00C3003F099FD60B908490748DC
:1071A0000839FFF7A1FE30B9054901220839044822
:1071B00002F0B8FA0446204610BD000068370020EF
:1071C0003C2D0020E02C002030B5EFF3108172B68A
:1071D0000D4A9468012324B10370002900D162B6DE
:1071E00030BD93604FF0E023D3F88051074C254029
:1071F0001560C3F88041D3F8844154605A17C3F82E
:10720000842100220270E8E778370020FC06FFBDE9
:107210000B498A68002A11D000280FD1EFF31080A3
:1072200072B60B684FF0E022C2F800314B68C2F82A
:10723000043100228A60002800D162B67047000045
:10724000783700202DE9F041064608680C46411CBD
:107250004FF0A0474FF0010506D005FA00F1C7F83E
:107260000815206802F0CEFB6068411C02D00021A6
:1072700002F0B6FB3168A069C1F82405607D227D6B
:1072800031681043C1F86C05D4E900123068C0F8C9
:107290001425C0F80C15207D012815D1A068411CCB
:1072A00002D0002102F09CFBE068411C05D0854023
:1072B000C7F80855E06802F0A5FBD4E9021230686F
:1072C000C0F80825C0F81015BDE8F0812DE9F0419F
:1072D000064608680C46411C4FF0A0474FF00105D8
:1072E00006D005FA00F1C7F80815206802F094FBF3
:1072F0006068411C02D0002102F07BFB3168A0696C
:10730000C1F82405607D217D32680843C2F86C0510
:10731000D4E900123068C0F80C15C0F81425207D9F
:10732000012815D1A068411C02D0002102F061FBA8
:10733000E068411C05D08540C7F80855E06802F0B8
:107340006BFBD4E902123068C0F80825C0F81015AC
:10735000BDE8F08170B588B182B10024158803E0E2
:10736000065D641C3444A4B2A54203D8061976789D
:107370009E4201D08C42F3D38C4201D3002070BDD9
:10738000A11C1180005D401E80B270BD2DE9F0414E
:107390008AB006460020ADF8140013461020884637
:1073A0008DF804000D4606AA01A9184664DFA6B3AD
:1073B00098BB9DF80400022804D0042807D01028A8
:1073C00039D10DE003208DF81000022003E00520E4
:1073D0008DF8100004208DF81100002404AF0FE098
:1073E00007208DF810000620F5E73B5D05AA414611
:1073F0003046FFF7AFFF641CE4B20546022C04D20E
:10740000BDF814000028F0D003E0BDF814000028F7
:1074100012D080B2064400240BE00CE030199DF835
:10742000042006A9FEF7F7FF48B19DF804002044A8
:1074300084B2AC42F2D300200AB0BDE8F081012052
:10744000FAE7000070B540B10C4D297839B1044617
:1074500004F02EF828B1002070BD0E2070BD082069
:1074600070BDE868062807D20549226801EB800153
:10747000401C0A60E860EEE7042070BDC82C0020C4
:107480009431002040B1054900220123CA600B70ED
:10749000C1E90102104670470E207047C82C002039
:1074A00070B504002DD000292BD02048007800288A
:1074B00027D020880D46112815D0302804D0322836
:1074C00007D033281ED109E0211D284603F0EEFE27
:1074D00018E0211D284603F01FFD13E0211D28465A
:1074E00003F016FE0EE0A088B5F8CA12884209D152
:1074F000002085F8C70285F8C8024FF6FF70A5F88E
:10750000CA0270BD95F8C8020028FAD02088302839
:10751000F7D34F28F5D8A088B5F8CA128842F0D121
:107520002846BDE8704001F049B90000C82C002091
:1075300048B1084A137843B1D26832B190F8C722F3
:107540002AB1112070470E2070470820704701F0C3
:1075500035B90000C82C002038B50288011D04464A
:107560001F2A5AD016DC102A26D03B483B4BC01AA3
:10757000C008032303EB0040112A3BD0132A41D05B
:107580001B2A5FD1097902295CD1BDE8384034A1BA
:1075900002F070BC212A49D03B2A54D0562A51D13E
:1075A000A088132176DF00284CD035A240F2DD11EF
:1075B000BDE83840FEF72EBEA1880022344800F016
:1075C00053F920B12EA240F29F11FEF723FE0720AF
:1075D00000F0E6FC20B12AA24FF4D171FEF71AFEAA
:1075E000A1882C48FFF7A4FF00282BD024A24FF439
:1075F000D371DDE70B790A8801B027A1BDE83040DF
:1076000002F043BC0023A0881A4685217FDF0028B2
:1076100018D01BA24FF4DD71CAE731F8040B75DFF7
:1076200000280FD016A240F2C111C1E7002000903F
:10763000A08869468FDF002804D011A240F2CD1146
:10764000FEF7E8FD38BDA088132176DF0028F9D0C9
:107650000BA240F2D511ABE738CF0200E0CE02001A
:10766000436F6E6E656374696F6E205265717565E8
:1076700073742074696D6564206F75742E0000004A
:107680002E2E5C2E2E5C2E2E5C6D61696E2E63009C
:10769000B4300020E4290020446973636F6E6E6586
:1076A000637465642E20636F6E6E5F68616E646CD8
:1076B000653A20307825782C20726561736F6E3AB8
:1076C000203078257800000010B51A4C01886068D9
:1076D00010290ED011292BD1401E606028D1FFF750
:1076E000B2FA002824D02168002921D0BDE810403A
:1076F0000847D0B900210122084600F02FFC08B14C
:1077000007280FD107220221012000F027FC08B131
:10771000072807D104220221002000F01FFC20B11D
:10772000072802D0216801B188476068401C60606A
:1077300010BD0000C02C002070B506462548264B21
:107740000D460322C01A0978C00802EB004469B153
:10775000012937D002293CD003293AD120461FA164
:1077600002F088FBBDE8704003F0AABF20461FA1CD
:1077700002F080FB698805F10E02304600F074F8D3
:1077800020B11FA240F25511FEF744FD304600F033
:107790002DF920B11AA240F25711FEF73BFD204609
:1077A0001BA102F067FB304600F0C0F920B114A223
:1077B00040F25B11FEF72EFD2046BDE870401FA190
:1077C00002F058BBAA7D297BA868BDE8704000F094
:1077D00003BA70BD38CF0200E0CE02004469736383
:1077E0006F6E6E65637465642E0000004469736398
:1077F0006F7665727920636F6D706C6574652E00AD
:107800002E2E5C2E2E5C2E2E5C6D61696E2E63001A
:10781000436F6E6E656374656420746F20727820A8
:1078200077697468204E6F726469632055415254C1
:1078300020536572766963652E000000436F6E6E9B
:10784000656374656420746F207478207769746848
:10785000204E6F7264696320554152542053657203
:10786000766963652E00000058B141803AB15188B5
:10787000C18011888180D188418191880181002057
:1078800070470E207047000030B5114B0D460400C4
:107890000FCB85B08DE80F0018D0BDB121466846EA
:1078A00062DF002810D120788DF812000120ADF899
:1078B00010004FF6FF7060802868E0600020A08014
:1078C000208104A8FFF7BEFD05B030BD0E20FBE708
:1078D000DCC2020010B586B00A0042D0002840D0B9
:1078E00051884FF6FF73994202D08488A14238D163
:1078F0000488112C27D0382C1DD0392C31D19488F4
:10790000002C2ED0D16800292BD043890121A3421D
:1079100003D18DF80010002104E01489A34203D1A3
:107920008DF800108DF8161000F110010291807B87
:107930008DF80C0011E08088814212D106B0BDE8BC
:10794000104004F041B9808888420AD1D0680028EC
:1079500007D003208DF800005380D3686946104695
:10796000984706B010BD30B587B00C4605461821C3
:107970006846FEF73EFD207804F10E01002833D161
:10798000A088012830D1A0792A7890422CD10022F9
:107990001AE002EBC20031F81030022B02D0042BA7
:1079A00011D108E001EB40000389ADF812304089A5
:1079B000ADF8140007E001EB40000389ADF80E308C
:1079C0004089ADF81000521C207A9042E1D8E86856
:1079D000002809D06088ADF8020000208DF8000072
:1079E000EA6869462846904707B030BD70B5050083
:1079F0000BD068884FF6FF72904208D0698931B188
:107A0000BDE87040012200F06FBC0E2070BD0A4935
:107A10000A4BC91AC908032303EB0144904203D15E
:107A2000204607A102F026FA688918B920460EA15F
:107A300002F020FA082070BDF8CE0200E0CE02006D
:107A4000636F6E6E5F68616E646C65203D3D2042C1
:107A50004C455F434F4E4E5F48414E444C455F4955
:107A60004E56414C494400006E75735F72785F63F7
:107A70006363645F68616E646C65203D3D20424CC9
:107A8000455F474154545F48414E444C455F494E21
:107A900056414C49440000003EB503000DD0144847
:107AA000144C001BC008022404EB0040F42A06D941
:107AB00011A102F0DFF907203EBD0E203EBD5C881B
:107AC000A4F57F45FF3D0DD0104831C88DE8310049
:107AD00018890291ADF80200ADF806205888694671
:107AE000A3DF3EBD0AA102F0C5F908203EBD00009B
:107AF000F8CE0200E0CE0200436F6E74656E742013
:107B0000746F6F206C6F6E672E000000ECC2020075
:107B1000436F6E6E656374696F6E2068616E646C2E
:107B20006520696E76616C69642E000070B5050091
:107B30000BD068884FF6FF72904208D0E98831B1C7
:107B4000BDE87040012200F0CFBB0E2070BD0A4995
:107B50000A4BC91AC908032303EB0144904203D11D
:107B6000204607A102F086F9E88818B920460EA140
:107B700002F080F9082070BDF8CE0200E0CE0200CD
:107B8000636F6E6E5F68616E646C65203D3D204280
:107B90004C455F434F4E4E5F48414E444C455F4914
:107BA0004E56414C494400006E75735F74785F63B4
:107BB0006363645F68616E646C65203D3D20424C88
:107BC000455F474154545F48414E444C455F494EE0
:107BD00056414C49440000002DE9F0410F4606464D
:107BE0001F482049401AC008012101EB00459AB105
:107BF000BB20FFF7BFFABB20FFF7BCFABB20FFF7A3
:107C0000B9FABB20FFF7B6FABB20FFF7B3FABB20E7
:107C1000FFF7B0FA00241FE000240CE0305DFFF70E
:107C2000A9FA030006D0112BF8D0284622460EA14F
:107C300002F02BF9641CBC42F0D3BDE8F081305D4A
:107C4000FFF798FA030006D0112BF8D028462246F9
:107C50000FA102F01AF9641CBC42F0D3EDE700005A
:107C600038CF0200E0CE020054585F707574206671
:107C700061696C656420666F7220696E6465782046
:107C800030783F25303478203A20253034782E0063
:107C900052585F707574206661696C656420666F08
:107CA0007220696E6465782030783F253034782002
:107CB0003A20253034782E0008B502F067FC20B158
:107CC0000D4A40F2EF11FEF7A5FA00200090694638
:107CD000012002F0D7FA20B1074A40F2F511FEF771
:107CE00099FA684602F066FB002804D0024A40F286
:107CF000F911FEF78FFA08BDAC8E02000149085C4D
:107D00007047000018C202000649095C4FF0A0400D
:107D1000D0F81005C84010F0010000D0012080F01C
:107D20000100704718C202002DE9FC410646C00759
:107D30004FF000050ED0104F00240122385D009551
:107D400000231146019501F003FE641C042CF4D3BA
:107D500000F046F8B0070DD5074E0024361D00226E
:107D6000305D032300951146019501F0F1FD641C7F
:107D7000042CF4D3BDE8FC8114C2020007490B5C5B
:107D80004FF0A041D1F804250120984020EA0203D9
:107D9000C1F808351040C1F80C05704714C2020044
:107DA0000249085C012101F052BE000014C2020029
:107DB0000249085C002101F04ABE000014C2020022
:107DC0000649095C4FF0A040D0F80405C84010F007
:107DD000010000D0012080F00100704714C20200B1
:107DE00010B500242046FFF7DBFF641C042CF9D3F8
:107DF00010BD10B500242046FFF7DAFF641C042CE8
:107E0000F9D310BD10B50246064B4FF0FF300021EC
:107E10005C5C944201D1084610BD491C0429F7D38B
:107E200010BD000018C2020070B50C4E0C004FF0DF
:107E3000000530600BD0012000F06AF808B1022084
:107E400004E0002000F064F800B10B20207070689E
:107E500010B9FEF7F8FE0546284670BDC02C00207C
:107E600010B5002000F0D6F908B1062806D101208F
:107E700000F0D0F908B1062800D1002010BD0000A4
:107E80002DE9F0470D468146FFF7BCFF0446042864
:107E900036D2DFF874801B481C4EA8F10C0725B3BE
:107EA000012D0ED0022D2BD104EB44003044457837
:107EB000002D25D0B968002922D02846BDE8F0471A
:107EC000084704EB4401755C0E44717849B10E4AD1
:107ED0004FF40041093A8068FFF76CF808B987F859
:107EE0000390B17808F80410E2E78068FFF7A6F87D
:107EF00004EB4401314418F804008D78A842D7D02F
:107F0000BDE8F0871CC20200BC2C002068310020B4
:107F1000042801D2FFF7F8BE00207047042804D0DF
:107F20000A280FD1002002F077B9074813214088B2
:107F300076DF082806D0002804D004A240F22D21C4
:107F4000FEF768B970470000B43000202E2E5C2E7A
:107F50002E5C2E2E5C6D61696E2E630070B5002361
:107F6000042810D20D4D00EB4004012A02D1012952
:107F70000CD00022094E00EB4000304461B10129D1
:107F800006D0022906D00723184670BD0E30C2B2B3
:107F90002A55F9E74270F7E78270F5E7683100206B
:107FA000044A014600201279D20702D0084600F0A8
:107FB0004DB87047B02C002070B506461E4800240E
:107FC000C0E90161B00720D50025012211462846ED
:107FD000FFF7C4FF6D1C0446042D02D2002CF4D020
:107FE00013E094B940F2666204211448FEF75CFE87
:107FF00004000AD1FEF746FE040006D10F48104ADD
:108000000021001FFEF798FF0446F00712D0012060
:10801000FFF78AFE74B909480A4A00210C38FEF7B6
:108020008BFF040006D10548074A01210838FEF7F6
:1080300083FF0446204670BDB02C002028C20200F9
:10804000E1820200F18B02007D6C02002DE9F05FFD
:108050006E4C054600266078B34618B184F801B02E
:1080600000F0AEFD6A4F4FF47A694FF4C87A4FF0D2
:108070000108182D69D2DFE805F00C1313384754B6
:10808000696E727B727BC58484848484B3B6B9BC08
:10809000C5C500F095FD3868FEF7D0FF06465CE0E8
:1080A0000020FFF78DFE00284FF0000008D0FFF7FA
:1080B00077FE022D02D14FF4E16008E0484606E069
:1080C000FFF776FE022D01D1C82000E05046410C9A
:1080D000C0034FF4FA72801841F10001257052007C
:1080E0000023FEF729F901462AE00020FFF768FE89
:1080F00000284FF0000004D0FFF752FE4FF4487004
:10810000E5E7FFF755FEDFE70020FFF759FE0028FF
:108110004FF0000002D0FFF743FECFE7FFF748FE25
:10812000D4E70020FFF74CFE00284FF0000002D0FB
:10813000FFF736FE01E0FFF73BFE257041F69A118E
:1081400000223868FEF736FF064646E00020FFF7BB
:1081500015FE257008E0002051E025703DE084F810
:1081600001800120FFF70AFE002240F6CD41E8E73A
:1081700084F801800120FFF701FE00224FF48041C6
:10818000DFE77868FEF75AFF0646D5F1110000D008
:108190002EB10220FFF704FE84F802B01DE0012892
:1081A00016D980B2C8214843C117C90341EA5041DA
:1081B000C0034FF4FA72801841F10001520000230D
:1081C000FEF7BAF8014600227868FEF7F3FE06468D
:1081D0000220FFF7EDFD84F802803046BDE8F09FF5
:1081E00000F0EEFCB9E700F0EBFCB4E700F0E8FCCF
:1081F00004E000F0E5FC0020FFF7DAFD0120FFF7C6
:10820000D7FDAAE7FFF7F5FDA7E70000B02C002097
:108210001CC20200012103F0D1BF00002DE9F84388
:108220000546861C00208DF8000090460F464FF052
:1082300001096846FEF7C8FF1B4C20683860D4E986
:108240000001401AA16804F21C47081A0EE001213F
:10825000384600F0C9FE00F05DFD0146384600F0EA
:10826000C3FED4E90001401AA168081A401C8642E6
:10827000EDD8B8F1000F03D0052065F3891002E0B6
:10828000062065F39F50A2682168114004EB81012C
:10829000C8602068304420609DF80000FEF7B8FFF9
:1082A0004846BDE8F88300002839002030B48268D1
:1082B0000468531C8360A154D0E901128A4202D39E
:1082C00030BC01F04CBA30BC70470000034803C812
:1082D000814201D1012070470020704728390020D9
:1082E00000780221FFF7CCBD70B50D460646154853
:1082F00015491446401AC008032101EB00403346DB
:108300002A46124901F0C1FD1149124B086800EBE1
:108310008002401C00F00700086003EB820202208C
:108320005581D081101D10610020908101201072B4
:108330001471210A51711680907003F045FC0020E1
:1083400070BD0000F8CE0200E0CE0200A4C702001B
:10835000D82C0020AC34002005494FF0FF3208280B
:1083600041F8202002D3084480F8482070470000DC
:1083700060350020F0B54FF0FF3512B1002308261C
:1083800001E008230C260C4C05E000BF54F82370D4
:108390007F1C04D05B1CB342F8D32846F0BD2618DE
:1083A0005DB286F8305044F82310002AF5D1E11868
:1083B00081F84800F1E700006035002002490844D8
:1083C00090F93000704700006035002008B5024683
:1083D00090F8C6020B4600EB8001C1EB801002EB67
:1083E000400092F8C52242B1521ED2B202EBC20145
:1083F00000EB4102518A491C00E0C188ADF8001031
:108400000089ADF80200694618469DDF08BD0000EE
:1084100070B5084C050009D010342168002907D038
:1084200008682060496828468847F6E70834F4E77A
:1084300070BD00004C350020054A012120B1012803
:1084400005D19170FFF7E4BF51700020FAE7704743
:108450004C3500202DE9F05F26484168F1B3DFF884
:1084600098B00E688146DBF8004087688078E11B91
:1084700021F07F45ED1CB0B9DFF880804FF48030EB
:10848000C8F84403C8F804031120FEF7DBF81120F4
:10849000FEF7E3F84FF0010AC8F800A02F2002F021
:1084A000A7F989F802A0B54200D23546124BE81967
:1084B0003C3320F07F401860DBF800105A46091B5F
:1084C00021F07F41001B20F07F40C91C81420FD961
:1084D000106818602F2002F08BF900E004E0BDE87E
:1084E000F05F1120FEF7C4B8BDE8F05F02F0FCBFFA
:1084F000BDE8F09F202D0020041501400010014030
:1085000070B588B00646002005900690ADF81410AE
:10851000ADF816100190029001AA05A9304690DF2F
:10852000050021D002F008F90346114811493246EE
:10853000401AC108012000EB014004460E4901F039
:10854000A4FCBDF8042012B9BDF8060028B1BDF89E
:108550000630204609A101F098FCBDF808201AB1A8
:108560002046164901F08AFC08B0284670BD00007C
:10857000E8CE0200E0CE0200A4C6020054686520E6
:108580007265717565737465642054582F52582054
:108590007061636B6574206C656E677468206973C5
:1085A00020746F6F206C6F6E672062792025752FA5
:1085B0002575206F63746574732E0000F0C6020089
:1085C00001460148FFF7CFB9B43000202DE9F84348
:1085D000054690F8C6020F4600EB8001C1EB801003
:1085E00005EB400695F8C542914604EBC40006EB46
:1085F00040013279601C0A31904226D16B4600223C
:10860000284600F0ABFA18B310E0401EA04201D19A
:10861000002004E004EBC40006EB40001C30804660
:1086200002466B46284600F099FA30B100203870B7
:10863000694648469EDFBDE8F88395F8C502414685
:10864000401C641C85F8C502E4B23079A042DCD835
:10865000012038700020EEE72DE9F0470025DFF813
:108660008C803CE06068002100EBC5060120327878
:108670009146FDF792FED4E9062300EA020701EADB
:10868000030C57EA0C0728D082438B434846C4E9C1
:10869000062302F06FF932788246914601200021CC
:1086A000FDF77BFED4E9042300EA020401EA030794
:1086B0004A4650460021FDF770FE44404F403C437F
:1086C0000BD17078012801D0012100E000217268EF
:1086D00081EA0A010AB1484690476D1CEDB298F84C
:1086E000000044468542BDD3BDE8F087002D002040
:1086F0002DE9F047894690F8C612904601EB8102B9
:10870000C2EB811100EB4107384602F0D1FE0600B2
:108710002FD0194CA06806282BD2184D762205EBD5
:10872000C0103946A0F80280001DFDF749FE002761
:10873000B9F1000F04D0A06805EBC010077004E089
:10874000A168022005EBC1110870A06805EBC011FB
:10875000401CCE67A060E16888420AD1002604E090
:1087600005EBC610C16F8847761CE0688642F7D3D8
:10877000A760BDE8F0870000C82C0020AC310020C5
:1087800070B50E4690F8C612154601EB8102C2EB99
:108790008111A0B000EB410002F08AFE040009D074
:1087A0007C2205496846FDF70BFEADF8025068468D
:1087B0000196A04720B070BD48C2020070B50E46B9
:1087C00004464FF43371FDF714FE11480025A4F858
:1087D000CA62856084F8C9520E4884F8C65284F88B
:1087E000C552006820602246012130469BDF0121EE
:1087F000112806D0002809D184F8C71284F8C8527D
:1088000003E084F8C71284F8C812002070BD00008D
:10881000C82C00209431002010B50021024800F03F
:10882000EEFB80F3100010BD443D00200E4910B552
:108830000A784C780023A24212D0521CD2B20A709D
:10884000022A00D10B70084A0B780C3252F8232010
:1088500002608868104420F07F408860012010BDCD
:108860000360002010BD0000202D00208268838856
:108870001A4003689A5C0A708168491C81607047DD
:10888000C26883881A4003689954C168491CC16052
:10889000704710B50446C0B2FEF76CFC204610BD10
:1088A00070B508880D46A0F52061773916D10C48BF
:1088B0000C49401AC108032000EB01440AA12046DC
:1088C00001F0D8FAA88810A1C01E82B20D48134644
:1088D00002802046BDE8704001F0D7BA70BD0000AC
:1088E00038CF0200E0CE0200415454204D545520B0
:1088F00065786368616E676520636F6D706C657421
:1089000065642E00E0290020426C65204E555320FE
:108910006D61782064617461206C656E6774682095
:1089200073657420746F20307825582825642900D9
:1089300010B50C490C4800F0E3FB20B10BA240F24B
:108940001321FDF767FCF721074800F0CDFB002855
:1089500006D0BDE8104005A240F21621FDF75ABC32
:1089600010BD0000A1880200C43000202E2E5C2E15
:108970002E5C2E2E5C6D61696E2E63002DE9F04138
:108980008046024601200021FDF707FD1A4F0546EB
:108990000E467868FEF752FB00280CD1174CD4E93C
:1089A000062110462A4001EA06031A4305D0A843CF
:1089B000B143C4E90601BDE8F081404601F0DAFFA9
:1089C00030B1D4E9040128433143C4E9040105E08E
:1089D000D4E90410A943B043C4E90410D4E9060162
:1089E00028433143C4E90601A1687868BDE8F04135
:1089F0000022FEF7DFBA000004C30200002D0020B1
:108A00002DE9FC5F0E008346DDE90C47C6F100004E
:108A100098469246814600D40846012503E000BFEF
:108A200090FBFAF06D1C5045FADAA84500D945468E
:108A300024B1002E01DB780700D5641EB80702D5EB
:108A4000B8F1000F0AD0F80708D13CB1A54205D211
:108A500020215846641EFFF729FCF6E7002E02DAB3
:108A60004E462D2102E0780703D52B215846FFF70B
:108A70001DFC07F0030002280BD1B8F1000F08D14C
:108A80003CB1A54205D230215846641EFFF70EFCCA
:108A9000F6E7CDE90047434652463146584603F0D3
:108AA0001BFBBDE8FC9F000070B50D460446006846
:108AB0004FF4887101F060FE4FF49071206801F06E
:108AC0005BFE4FF49271206801F056FE4FF4A271E4
:108AD000206801F051FE20681249C0F80413206894
:108AE000690740F30730090E002806DA00F00F008E
:108AF00000F1E02080F8141D03E000F1E02080F890
:108B000000142068012140F3073000F01F0291405B
:108B10004009800000F1E020C0F88012C0F8001188
:108B200070BD0000100302000246002012685307C7
:108B300013D502F00300012802D002280CD105E071
:108B4000C2F383100B68801C184404E002230868F9
:108B500003EB9252104408600120704710B5098958
:108B60002AB1D088491C814218D1002010BD90F84C
:108B7000C62202EB8204C4EB821200EB420212898D
:108B80009142F2D0491C198090F8C61201EB810283
:108B9000C2EB811100EB4100008902E01980D0880E
:108BA000401E5880012010BD007DC0F3C100012887
:108BB00003D0032801D00020704701207047000037
:108BC0000A4810B5807860B1002401E0022C06D07C
:108BD0002046FFF7E5F8641C042CF7D310BD0324EE
:108BE000F6E7BDE81040FFF7FBB80000B02C00200E
:108BF00003480179C90702D00078FFF727BA704708
:108C0000B02C0020F7210180172141800021017143
:108C10004171FB2181711B21C17170472DE9F04722
:108C2000394E002780463D46DFF8E090D6F804A094
:108C300057E003D00446D0F81C8035E099F80020B6
:108C400002EB4201521CD2B289F8002009EBC101AB
:108C500099F80230091D9A4201D189F800504868FC
:108C60000A780446012A12D0022A02D0032A3BD1F4
:108C700008E002F01BFF00B10127257434E0057401
:108C8000C06900E070680028F9D170602CE0207C99
:108C900050BB88686060C868A0600869E060486987
:108CA000A061F07800B165606268B168184B501A35
:108CB00020F07F40984202D2A168084406E0881A5A
:108CC000A16820F07F40814202D9081A206000E0AC
:108CD000256065600120A56020742046E56102F0F2
:108CE000C7FEB8F10000A4D199F8001099F801006E
:108CF0008142A3D117B97168514502D00120BDE866
:108D0000F0870020FBE70000202D00204C360020DB
:108D1000FFFF7F002DE9FF410026234800F061F9A5
:108D20002148001F074600F05CF9204C6068009065
:108D3000A56800E000986946284004EB80000C30EC
:108D4000FFF7F2FE0028F5D101AA009901EA050318
:108D500004EB8303491CDB6842F82030401C00917F
:108D60000228F2D3019800F0030001280BD002285A
:108D700010D10198032101EB90500099BDF80A60D1
:108D800001EB900005E00198BDF80A60C0F3831084
:108D900008440090384600F021F908B1009860605E
:108DA00004B03046BDE8F081403D00202839002065
:108DB0008AB04FF40041002001F0E2F820B13BA25C
:108DC00040F27721FDF726FA00F02CFFFEF7C8F8F5
:108DD00020B136A240F26F21FDF71CFA1822374964
:108DE0006846FDF7EDFA3648069036494FF4807034
:108DF000CDE9070109900723334A06A96846FEF723
:108E000067F920B129A240F24D21FDF703FA2F495D
:108E10000120FFF7D1F820B124A24FF41971FDF71A
:108E2000F9F969460020FEF7FFFF20B11FA240F2CA
:108E30006721FDF7EFF92648FEF724FB20B11BA2BE
:108E400040F28B21FDF7E6F901F0B0F920B117A24D
:108E500040F28321FDF7DEF9FEF72EFFFFF768FDF4
:108E60001C48009069461C48FEF70EFD20B10FA279
:108E700040F25921FDF7CEF902F0EEFB17A0FDF705
:108E8000A7FE1F481F49401AC008032101EB0040FC
:108E90001DA100F0EFFF02F013FC00BF00F0D0FEB8
:108EA0000028FBD101F096F9F8E700002E2E5C2E89
:108EB0002E5C2E2E5C6D61696E2E6300FCC102007B
:108EC000B42E0020B42F0020ADBC02001D7F020094
:108ED000C185020039770200B4300020424C4520A1
:108EE000554152542063656E7472616C20657861DF
:108EF0006D706C6520737461727465642E0D0A0068
:108F000038CF0200E0CE0200424C45205541525479
:108F10002063656E7472616C206578616D706C653C
:108F200020737461727465642E0000002DE9F047AF
:108F3000C5881E1DB6FBF5F78946B6FBF5F104465C
:108F400005FB176C407916686843DDF820A0F71818
:108F5000001F874200D9C61A166001E02468491E26
:108F60000029FBD1A5EB0C078846B74216D818E0BC
:108F700004EB0C00001D09EB0803BAF1000F3A46A0
:108F800002D00146184600E01946FDF719FA246898
:108F9000F61B4FF0000CB844B54201D9374600E04B
:108FA0002F46002EE4D1BDE8F087000030B5024620
:108FB00051B101F003F80021074C08E034F82130EA
:108FC0001568AB4202D11160002030BD491C8142BE
:108FD000F4D3052030BD000000000000002100F0A7
:108FE00009B8012100F010B808B56A46FDF753F939
:108FF000009808BD08B56A46FDF733F908BD08B505
:109000006A46FDF715F908BD08B56A46FDF71CF973
:10901000009808BD08B56A46FDF74AF9009808BDF2
:1090200038B5044600258DF800506846FEF7CCF8A8
:1090300021686268086890420ED9401E0860017875
:10904000238AE26801FB0325227A2168101AC0B244
:109050000A79824200D208719DF80000FEF7D8F824
:10906000284638BD38B5054600208DF800000C466E
:109070006846FEF7A9F8E868298A201AB0FBF1F1E2
:109080002A681068431C136001709DF80000FEF709
:10909000BFF838BD10B530B1017A42680368891A4B
:1090A000C9B21A6006E00E2010BD03681A68541C8D
:1090B0001C601170491EC9B2F7D20068002101710D
:1090C000084610BDC20800F007030120895C9840E3
:1090D0000840704710B5C20800F00703885C0124FF
:1090E0009C402043885410BD28B1A1F11702E12A09
:1090F00003D3072070470E2070474180002070473F
:1091000010B560B10161F72120F8021B20F8021BA5
:10911000FB2100F8021BFFF775FD002010BD0E209B
:1091200010BD0000F0B5858893B00C46002D39D1F4
:10913000018800263F4F24293BD006DC102909D0A6
:1091400011290CD0232958D14FE03A290BD05529A9
:1091500053D129E00146204601F086FF4DE0A01DD5
:10916000FFF750FD49E02246408934F8061F81424E
:1091700000D808466080172800D217206080106948
:1091800070B1607960B1D7E90001CDE90301ADF8B4
:109190000E506088ADF81000136903A91046984777
:1091A0006671267113B0F0BD0146204602F028F822
:1091B00023E0011D2C2206A8FDF702F9BDF81800D6
:1091C000BDF81C2004EBC0014A732269AAB1D7E99B
:1091D0000423CDE90423ADF81200487B8DF8140078
:1091E0002269204604A9904707E0017A207B884243
:1091F00000D201462846FFF783F9A07A0028D1D093
:10920000E1882846A5DF012580B11128CAD001F0E8
:1092100093FA02460848094913B0401AC00805EB02
:109220000040BDE8F04006A100F028BEA672E5723D
:10923000B8E70000C4C20200E8CE0200E0CE02009F
:1092400073645F626C655F67617474635F657863A4
:1092500068616E67655F6D74755F72657175657362
:109260007428292072657475726E65642025732ECA
:10927000000000002DE9F041044600F1140700F160
:109280000A05867C007A86B001F10208002814D015
:109290008BDF14216846FDF7ACF833462A46394681
:1092A00040468CDF06218DF800100190002804D084
:1092B000616A002901D06846884706B0BDE8F081A0
:1092C0004FF4C87101820621418109218181002169
:1092D000C1817047017DA022C2825022028321F009
:1092E00018010022428341F00401017501214175FA
:1092F0007047F0B520B11AB1032903D00720F0BDA3
:109300000E20F0BD04790346051D0CB10420F0BD0C
:1093100000211688084633F82170B742F7D0491C5F
:1093200011F0FF01F7D003EB8401641C2C7012686C
:109330000A60F0BD18B100214171084670470E2047
:10934000704710B50B46040002D0980702D009E020
:109350000E2010BD580705D4D80603D4180701D431
:10936000072010BD2046FFF7E5FF580701D5012073
:109370006071A271002010BD70B50D46040010D0C0
:109380000026266066606262EDB128792072287B33
:10939000A074296839B10E2204F11400FDF710F809
:1093A00004E00E2070BD2046FFF794FFA86830B19E
:1093B0000168C4F80A104068C4F80E0009E02046AD
:1093C000FFF77EFF05E0FFF785FF2046FFF778FFF8
:1093D000267204F12800A0641F20A4F84C0000208D
:1093E00070BD2DE9F04F044689B00020884607463D
:1093F000069014216846FCF7FCFF04F11400049069
:109400002046FFF7D1FB010004F14800059011D080
:1094100002208DF80000CDF80480616A6846884714
:10942000002005998ADF41462046FFF723FF09B057
:10943000BDE8F08FA079002107916179834621B3BF
:1094400001210691824694F804900026B8F81C0089
:109450003546089012E004EB8502D8F81800089908
:10946000FDF794FF28B1761CF6B2BAF1000F0DD0CB
:1094700002E0BAF1000F06D16D1CEDB24D45EAD302
:10948000BAF1000F02D04E4501D009E046B19DF877
:10949000080040F004008DF8080001207F1C0790B0
:1094A000CDF80480BBF1000F02D00698874203D0AC
:1094B000079830EA0B0007D000208DF800004146E5
:1094C0002046FFF7D7FE02E003208DF80000616A16
:1094D00009B168468847002005998ADFA7E770B57B
:1094E0000D46014601F108020C1D28460988143575
:1094F00086B0102935D01B291FD01D2917D020294F
:1095000042D1064614216846241DFCF772FF706A9A
:10951000002839D005208DF80000049520680190BE
:1095200060680290207A8DF80C00716A2AE006B01B
:109530001146BDE87040FFF754BF06461421684647
:10954000241DFCF756FF207801281DD1706A0028E1
:109550001AD004208DF80000049520788DF80400BE
:10956000E3E7064614216846FCF743FF07208DF821
:109570000000201D01902088ADF808000495716A54
:10958000002901D06846884706B070BD30B585B067
:10959000040025D014216846FCF72BFF8BDF204602
:1095A000FFF702FB012528B1616A19B18DF800505F
:1095B0006846884704F1480104F114008ADF044634
:1095C00008280FD074B1084808492246401AC0083C
:1095D00005EB004006A100F051FC204605B030BD6F
:1095E0000E20FBE70020F9E7F0CE0200E0CE0200FB
:1095F00073645F626C655F6761705F7363616E5F08
:1096000073746172742072657475726E6564203053
:109610007825780000F180400068002800D0012003
:10962000704708B500F1804000210160006800909B
:1096300008BD000070B50B4C207808B185250FE0FF
:109640000020A06060602061E060074801F0B2F88F
:10965000054600F0E7FF08B901F094F801202070FA
:10966000284670BD4C3500203984020038B50025ED
:109670008DF800506846FDF7A7FD074CE068401ED6
:10968000E060E06810B901F0A5F8A5709DF8000051
:10969000FDF7BEFD38BD00004C350020F0B5054695
:1096A0000478154889B0164640F82420124A086903
:1096B000121DA2F1080742F82400487F38552022E5
:1096C0006846FCF77DFE04942878385C48B10EB1FA
:1096D0000A4A00E000226946281D01F00FFB09B08C
:1096E000F0BD0EB1064A00E00022694605F10C000B
:1096F00001F0BAF9F3E70000E42C0020B5BF020046
:109700005DBE020030B40378054CE35C1BB130BC95
:10971000001D01F029BB30BC0C3001F00FBA000075
:10972000E02C002030B40378054CE35C1BB130BC66
:10973000001D01F09BBB30BC0C3001F075BA00007D
:10974000E02C00200FB408B50399002904D004AA26
:1097500000926A4600F00FF801B05DF814FB10B5F6
:1097600082680446002A05D0D4E90403216898479A
:109770000020A06010BD2DE9FC4791460C008046FA
:1097800076D014F8011B39B125290ED04046FEF7DA
:109790008DFD20780028F4D198F80C00002867D0BF
:1097A0004046BDE8FC47FFF7DABF002001222178E0
:1097B0002B291BD02D2902D0302908D102E040F0FE
:1097C000010001E040F00200641C002AEFD10025F6
:1097D0002A290ED02178A1F130020A2A11D205EBF4
:1097E000850201EB4205641C303DF1E740F00400C6
:1097F000EAE7D9F800100B1DC9F800300968641CAD
:109800000D44217800232E290BD114F8011FA1F15A
:1098100030020A2A05D203EB830201EB4203303BFC
:10982000F3E76C290DD068290BD0692921D00BDC16
:10983000252918D0582931D063290ED0642915D193
:1098400017E014F8011FECE7702969D0732932D0B2
:1098500075291BD0782909D120E0D9F80000011D15
:10986000C9F8001001784046FEF720FD641C90E71F
:109870006CE0D9F800100A1DC9F800200968CDE98C
:1098800000500A224046FFF7BBF8EFE7D9F8001076
:109890000A1DC9F8002009680A2206E0D9F800105C
:1098A0000A1DC9F8002009681022CDE90050404681
:1098B00002F012FCDAE7D9F8001000270A1DC9F8F7
:1098C00000200E68C00705D112E04046761C7F1CC0
:1098D000FEF7ECFC31780029F7D104E02021404666
:1098E0006D1EFEF7E3FCBD42C0D9002DF6D1BDE7E9
:1098F0004EB13046FCF788FD074604E02021404683
:109900006D1EFEF7D3FCBD4206D9002DF6D103E053
:109910004046761CFEF7CAFC31780029F8D1A5E74D
:10992000D9F80000011DC9F8001005683021404633
:10993000FEF7BCFC78214046FEF7B8FC0820002169
:10994000CDE90001034610222946B0E7BDE8FC87B7
:1099500070B541EA4201DDE904564FF0A04441EA06
:10996000830141EA052104EB800041EA0641C0F889
:10997000001770BD70B541EA4201DDE904564FF0B1
:10998000A04441EA830141EA052104EB800041EA59
:109990000641C0F8001770BD70B541EA4201DDE92B
:1099A00004564FF0A04441EA830141EA052104EB4B
:1099B000800041EA0641C0F8001770BD70B541EA69
:1099C0004201DDE904564FF0A04441EA830141EA37
:1099D000052104EB800041EA0641C0F8001770BD84
:1099E0001CB500220B46009211460192FFF7D4FFEE
:1099F0001CBD1CB500220B46009211460192FFF7D8
:109A0000DDFF1CBD1CB5002100910B460122019118
:109A10001146FFF7C1FF1CBD1CB5002100910B468C
:109A2000012201911146FFF7C9FF1CBD4FF0A04272
:109A300002EB8000D0F8002722F44032C0F8002763
:109A4000D0F8002742EA0141C0F800177047012210
:109A50004FF0A043824011B1C3F808257047C3F806
:109A60000C25704718B5084B6C4601441B680093E1
:109A700006E000BF54F82030D3F81035401C08C26F
:109A80008142F7D818BD0000F8C20200034908B5AA
:109A90000844002101600068009008BD006000409B
:109AA00002494058012800D0002070470060004063
:109AB00030B5154A01460020D2F8104423460AE08A
:109AC000DB681D79854205D1401C0A28F6DB4FF082
:109AD000FF3030BD1B68002BF2D1431CF9D0CB689E
:109AE0001871D2F8103443B1DB68CC681B6823606E
:109AF000D2F81024D268116030BDC2F81014C968C1
:109B000000220A6030BD0000283900207047FCF7B1
:109B100009BE704708B5034A00924023024A00F08C
:109B200005F808BDADB7020090370020F0B595B03C
:109B30001C4615460F4608461A9E00F011FB1821D8
:109B400009A8FCF756FC0E96CDE90954002308221B
:109B500003A9384600F019FB05980690BDF81000DF
:109B6000ADF81C00BDF81200ADF81E0000208DF805
:109B700021000398082600F00300012802D00228E3
:109B800018D032E003983346850AC0F3C2008DF83E
:109B9000200003980FA9C0F38314A200384600F0F8
:109BA000F4FA09A8009006AB22460FA9284600F057
:109BB00033FA1AE00398840DC0F3C2008DF8200038
:109BC000082C01D2254600E0082533462A460FA975
:109BD000384600F0DAFA2E44641B09AB06AA29467F
:109BE0000FA800F077F9002CEAD1384600F0BEFA51
:109BF00015B0F0BD0A4A012902EBC00007D00229C6
:109C000007D0032907D0042907D00020704702207D
:109C10007047042070470079704740797047000012
:109C2000E0CE020010B5FFF772FF04210348FFF7F2
:109C30003FFF02490120C968487110BDD0CE020023
:109C40002DE9F04F8DB0FEF741FB18B100200DB0AB
:109C5000BDE8F08F7E4C4FF0000BC4F818B4BFF392
:109C60004F8F60680290A568D846284004EB8000BA
:109C70000CE000BFD4F8180470B921680298814242
:109C800001D86160E2E7284004EB80000C3002A9B3
:109C9000FEF74AFF0028EDD1002005AA029901EA4B
:109CA000050304EB8303491CDB6842F82030401CA9
:109CB00002910228F2D3059800F00300022802D096
:109CC00001284DD0AAE005985022810D8946B2EBBB
:109CD000905F00D850210E4666F39F5005900831E2
:109CE0005C4800F0F4F9070078D000F039FA4346F8
:109CF000082205A9384600F050FA029908F1080A2E
:109D00002940681A8000001D864222D9504D0C352A
:109D100030B1C2B204EB8101301A90460C3104E03C
:109D20002946F2B2002590462846C6B25346384628
:109D300000F033FA0AEB080325B1324629463846CB
:109D400000F02BFA029909F1030001EB9000029058
:109D50003BE004EB81015346324638460C31EFE7D5
:109D60000598C0F38310062800D30620059960F3F8
:109D70008911C1F38310801C05918100354800F0E2
:109D8000A6F907004AD000F0EBF94346082205A9DE
:109D9000384600F002FA08F1080800260FE00298A1
:109DA000434600EA0501401C04EB810102900422B5
:109DB00038460C3100F0F1F908F10408761C0598DA
:109DC000C0F38310B042EAD847B1D4F81054D4F8A5
:109DD000180478B1384600F0C9F934E01EE0E868AC
:109DE0004079012804D12A682846394612689047EC
:109DF000E8680568002DF2D1384600F0B7F98DF813
:109E000000B06846FDF7E0F9D4F8180408B90298E4
:109E100060609DF80000FDF7FBF914E0D4F81044F1
:109E200005E02168204689688847E0680468002CBE
:109E3000F7D109480949401AC008022101EB004046
:109E400007A100F017F8FEF741FA80F00100FEE6E6
:109E50002839002058CF020038CF0200E0CE02009F
:109E60004261636B656E647320666C7573686564CC
:109E70000000000000231A4601F074BD08B501235C
:109E800000926A4601F06EFD08BD1CB5CDE90023C5
:109E900002236A4601F066FD1CBD70B586B00DF167
:109EA000280C9CE870008DE87C0005236A4601F0D0
:109EB00059FD06B070BDF0B587B00DF1300C9CE8CF
:109EC000F0008DE8FC0006236A4601F04BFD07B068
:109ED000F0BD00002DE9F0470E4680461C46924634
:109EE00008293ED894F80C9000202073194610469B
:109EF00001F086FA0025B54206D218F805201AA10D
:109F00002046FFF71FFC03E019A12046FFF71AFCCB
:109F10006D1C082DEFD317A12046FFF713FC002579
:109F2000B54210D218F80570FCF746FA0068C05D1B
:109F300010F03E0F01D03A4600E02E220EA120463E
:109F4000FFF700FC03E00DA12046FFF7FBFB6D1CB3
:109F5000082DE5D301222146504601F033FA84F85A
:109F60000C90BDE8F087000020253032780000001A
:109F7000202020007C00000025630000200000005D
:109F80000B4810B5FF218160002101604160C0F8DD
:109F90001814C0F8141480F82014064800F0E4F8EF
:109FA000002803D1044800F055F9002010BD00003E
:109FB0002839002058CF0200C8C4020002480349D3
:109FC000401AC0087047000058CF0200E0CE0200DF
:109FD00013B56846FEF7EAFF08B100201CBD024831
:109FE000009950F831001CBDE0CE020070B5094860
:109FF0000125D0F8104480F8205407E0E06845714E
:10A000002168204649688847E0680468002CF5D13B
:10A0100070BD0000283900202DE9FF4781460C9DC6
:10A0200000200C462F7B2873984616462946184672
:10A0300001F0E6F9072E42D2DFE806F004090F1618
:10A040001F2A360049462846FFF77CFB37E0494681
:10A0500028462268FFF776FB31E0D4E90023494621
:10A060002846FFF76FFB2AE0A0680090D4E90023A0
:10A0700049462846FFF766FB21E0D4E90201CDE915
:10A080000001D4E9002349462846FFF75BFB16E0B0
:10A0900004F1080007C88DE80700D4E90023494609
:10A0A0002846FFF74FFB0AE004F108000FC88DE8CF
:10A0B0000F00D4E9002349462846FFF743FB00225E
:10A0C0002946404601F07EF92F73BDE8FF872DE950
:10A0D000F041058A80462D1F4819C01CB0FBF5F0E1
:10A0E000C6B24046FEF79CFF041E19D00020207126
:10A0F00001206071E58000272546761EC4F80080A7
:10A100000BE04046FEF78CFF60B16179491C61713C
:10A11000286005467F1CC0F80080B742F1D3204676
:10A12000BDE8F081204600F002F80020F8E72DE9B4
:10A13000F041457901466B1E002201E00968521C7E
:10A140009A42FBD30F680146002605E038460C68AA
:10A15000FEF788FF2146761CAE42F7D3BDE8F081BA
:10A160000121001DFEF740BFFEF794BF10B5044665
:10A170000121001DFEF74EFF10F0FF0F04D1204615
:10A18000BDE81040FFF7D3BF10BD1CB501920122FE
:10A19000009201AAFEF7CAFE1CBD1CB50192002266
:10A1A000009201AAFEF7C2FE1CBD0000064910B5D0
:10A1B00000204870091D0860BFF35F8F0349044801
:10A1C00000F076FA002010BD502D002060C3020080
:10A1D0008437002008B500208DF800006846FCF7A1
:10A1E000F3FFF1EE100A20F09F00E1EE100ABFF33A
:10A1F0005F8F08494020C1F880029DF80000FDF7FC
:10A2000007F800F00FFA08B141DF08BD20BF40BFDA
:10A2100020BF08BD04E000E070B504460C480121F1
:10A22000FEF7EDFEBFF35F8F0025002809D1012066
:10A23000074E042C08D0311F4A781AB1BFF35F8F44
:10A24000356070BD0C70487001F0F6FAF6E700005A
:10A25000542D00208268002191608268116182681B
:10A2600051618268D1608268516080680160704786
:10A2700020B1034909680160002070470E20704733
:10A280004CC502002DE9FE4307460E460846FFF77F
:10A29000EFFF00287CD100250095019506208DF860
:10A2A00000704FF00108ADF8040002958DF80280AF
:10A2B00069462020326869DF3649374A891AC90859
:10A2C000012202EB014430B100F036FA024620468A
:10A2D0003249FFF7D3FD00958DF801508DF80280CB
:10A2E000019502958DF8038069464020326869DF48
:10A2F00030B100F021FA024620462949FFF7BEFDA1
:10A3000000958DF80070F720ADF8020001950295D8
:10A3100069462320326869DF30B100F00DFA024649
:10A3200020462049FFF7AAFD0095019502958DF87A
:10A33000008069460120326869DF30B100F0FCF925
:10A34000024620461849FFF799FD4FF4B06000908F
:10A35000019502956946A120326869DF30B100F0AD
:10A36000EBF9024620461149FFF788FD009501955B
:10A3700002958DF800506946A020326869DF30B13F
:10A3800000F0DAF9024620460949FFF777FD002080
:10A39000BDE8FE8348CF0200E0CE020034CD0200CB
:10A3A0007CCD0200C8CD020094CC0200E0CC0200BB
:10A3B00040CC02002DE9F0410546076860DF804689
:10A3C00019491A482A68081AC608BA4219D9022037
:10A3D00000EB064416A12046FFF74CFD20463A4606
:10A3E0001FA12B68FFF751FD4FF08050D0F80C01F2
:10A3F0002968800200F10050421A204625A1FFF78B
:10A400003DFDB8F100004FF001040AD000F094F9CE
:10A41000024604EB06402AA1FFF730FD4046BDE8A6
:10A42000F0812F480470F9E748CF0200E0CE020027
:10A43000496E73756666696369656E742052414D35
:10A4400020616C6C6F636174656420666F72207448
:10A45000686520536F66744465766963652E0000F5
:10A460004368616E6765207468652052414D2073B2
:10A4700074617274206C6F636174696F6E206672B0
:10A480006F6D203078257820746F20307825782EF5
:10A49000000000004D6178696D756D2052414D20BE
:10A4A00073697A6520666F72206170706C69636190
:10A4B00074696F6E20697320307825782E00000053
:10A4C00073645F626C655F656E61626C65282920EC
:10A4D00072657475726E65642025732E000000002D
:10A4E000BB2D002030B51748ADF5017D0078002860
:10A4F00025D04FF4FA7400BFADF8004280A9684639
:10A5000061DF50B105281AD00DF5017D0EA2BDE81E
:10A51000304040F23911FBF77DBE6D461A497DA8E7
:10A5200000F0C6F807E000BFD0E9002128469047B8
:10A530007DA800F0D4F87F980028DDD0F4E70DF571
:10A54000017D30BDBB2D00202E2E5C2E2E5C2E2ECC
:10A550005C2E2E5C2E2E5C2E2E5C636F6D706F6EEB
:10A56000656E74735C736F66746465766963655C4D
:10A57000636F6D6D6F6E5C6E72665F7364685F6251
:10A580006C652E630000000050C502007CB5194CBC
:10A59000207808B108207CBD0120A070002001F0C7
:10A5A000D7F8112819D0002001F0EAF81248002647
:10A5B000006801908DF800606846FCF705FE0F49C1
:10A5C00001A810DF05000AD0002020709DF80000CF
:10A5D000FCF71EFE2DB128467CBD00207CBD01206D
:10A5E000F3E7A670667001F071F9012001F0C8F878
:10A5F000F3E70000B82D0020E4C40200216D020042
:10A600000EB50749684600F053F805E0D0E90010A0
:10A610008847684600F063F802980028F6D10EBD1E
:10A6200000C502000148007870470000B82D0020E6
:10A630001FB568464BDF40B1052816D004B00BA209
:10A64000BDE810406B21FBF7E5BD184901A800F0FB
:10A650002FF806E0D0E900210098904701A800F00B
:10A660003EF803980028E4D0F4E71FBD2E2E5C2EA0
:10A670002E5C2E2E5C2E2E5C2E2E5C2E2E5C636F9E
:10A680006D706F6E656E74735C736F6674646576FF
:10A690006963655C636F6D6D6F6E5C6E72665F7330
:10A6A00064685F736F632E63000000006CC5020076
:10A6B000016009684160AFF3008010B5D0E9002166
:10A6C0005368994201D1002104E0D1E90034A3424A
:10A6D00002D01946816010BD08314160F0E7816801
:10A6E00000290BD0026892680A44826041684B6876
:10A6F0009A4203D108314160FFF7DFBF7047000085
:10A700000C4A10B502F594730EE0991AC91001EBCA
:10A71000D171491002EBC1010C68844201D90B468A
:10A7200002E005D201F108029A42EED3002010BDEA
:10A73000486810BD80C3020000B5FFF7E1FF0028A4
:10A7400000D1014800BD00006CC302004058002841
:10A7500000D00120704708B50022425040580090B8
:10A7600008BDD0F80403084000D0012070474058CD
:10A77000002800D00120704708B500224250405800
:10A78000009008BD09480068012110F0010F08D1B0
:10A790004FF0E020C02280F80024C0F88012C0F8FA
:10A7A00000110349012008607047000000E100E04B
:10A7B000180500400649024600200B790BB18520A0
:10A7C00070470A6001220A7100224A717047000036
:10A7D000EC2C002004490120086004480168C1F302
:10A7E00000410029FAD170470C00004018040040D5
:10A7F000002802D0014980010847704711C30200B8
:10A800002DE9F0418846054600F0C4FD234E00289E
:10A8100028461AD0FDF7D2FD304490F84800800950
:10A82000032802D001280ED007E04FF0A040D0F856
:10A830001005E84010F0010F05D003212846BDE8BF
:10A84000F041FFF7F3B80221F8E700F0AFFD002870
:10A8500022D02846FDF7B2FD04464FF4807000EB8D
:10A8600084000F4F81B207EB8400D0F8102542F02E
:10A870000102C0F810250846FFF708F9B8F1000FEB
:10A880000AD02846FDF79AFD56F82000002803D08C
:10A890000120A040C7F80403BDE8F0816035002026
:10A8A000006000402DE9FC41DFF8BC80044608EB65
:10A8B0000400002790F930001346C0170E46401CD4
:10A8C00001D008274CE0B0781946C0F3400220467A
:10A8D000FDF750FD0546401C41D0B078410719D422
:10A8E000C0070AD04FF0A04000EB8401D1F8000768
:10A8F00020F00200C1F8000707E00021737820462D
:10A9000000910A460191FFF735F817492046543166
:10A91000FEF7E0FBB078800718D51448317800EBDB
:10A920008500D0F81025124B1A40C0F810254FF4BE
:10A93000F8524FF4403302EA042203EA01410A4389
:10A94000D0F810150A43C0F8102509E008EB0500FF
:10A95000327810F8481F41EA8211017000E00427A4
:10A960003846BDE8FC8100006035002000600040F2
:10A97000FFE0FCFF4FF0A041D1F81015C14011F0ED
:10A98000010000D00120704770B5184D95F85800AF
:10A9900008B1082070BD0020411E2A18401CC0B21A
:10A9A00082F830102028F8D300242046FDF7D4FC8C
:10A9B000641CE4B20C2CF8D300240D49C0206C6553
:10A9C00081F8000401264020891FC1F88002C1F8E7
:10A9D00000014FF4BE70FFF759F80649F007C1F8BF
:10A9E000040385F85860204670BD000060350020E3
:10A9F00006E000E000600040034890F8580000289E
:10AA000000D0012070470000603500200121B1EB2B
:10AA1000507F01D1012070470020704738B50D46A6
:10AA200000F03AFD040014D000208DF800006846C4
:10AA3000FCF7CAFB207928B19DF80000FCF7E8FB81
:10AA4000112038BD0120256020719DF80000FCF721
:10AA5000DFFB002038BD00000149024801F016BAB2
:10AA6000BC350020002000402DE9F041054600796A
:10AA700016460F4600EB40012D4A01EBC00102EBE8
:10AA8000810494F82A1011B10820BDE8F081294909
:10AA900051F820102868FFF7C1FF08B11120F4E732
:10AAA00039462846FCF7CEFB6660386920603000E6
:10AAB0004FF001062FD03F7F4FF48E712868FFF7CB
:10AAC0004AFE4FF4A2712868FFF745FE28681A492C
:10AAD000C0F8041328684FEA471140F307300028F4
:10AAE00006DA00F00F0000F1E02080F8141D03E00A
:10AAF00000F1E02080F80014286840F3073000F0EF
:10AB00001F0206FA02F14009800000F1E020C0F8BF
:10AB10008012C0F8001128680421C0F80015002038
:10AB2000A061E06184F8290044F8140FA675ACE731
:10AB3000BC350020FCC20200800002002DE9F05F5D
:10AB4000054600794FF4017600EB400303EBC000AB
:10AB5000344B03EB80040020636813B12B68C3F807
:10AB60000863A3694FF000096BB1E06938B1606810
:10AB700010B12868C0F804631120BDE8F09FE261BD
:10AB80000120216105E0C4F82490A261E160C4F8CD
:10AB90001C9094F82910014302D1284600F0F2FCE1
:10ABA00060680028286803D0C0F804630020E4E748
:10ABB0004FF4A2763146FFF7CEFDB2464FF4927BBA
:10ABC00059462868FFF7C2FD06464FF4847128688D
:10ABD000FFF7BCFD804651462868FFF7B7FD0746E2
:10ABE00048EA07003043EBD056EA070007D1214678
:10ABF000286800F097FCA169606A8142E0D8C4F837
:10AC000018900EB10320B8E70FB10F20B5E794F804
:10AC1000291001200029296801D00860C6E7486092
:10AC2000C4E70000BC3500202DE9F0470546007957
:10AC30000B4600EB400101EBC000234901EB80040F
:10AC4000284600F043F810B11120BDE8F0874FF01E
:10AC50000008C4F82080A360626184F828804FF463
:10AC60008E76474631462868FFF775FD28684FF015
:10AC70000109C0F808902146286800F0F9FF6068D3
:10AC800000BBD5F800A00EE094F8280008B10F270B
:10AC900016E031465046FFF759FD0028F4D0214612
:10ACA000504600F0E5FF216A60698142F1D33146E8
:10ACB0002868FFF74BFD0028F9D02868C0F80C90F1
:10ACC000C4F814803846C0E7BC350020007900EB9A
:10ACD000400101EBC000044901EB800040690028FD
:10ACE00000D0012070470000BC3500200149024817
:10ACF00001F078B9E8350020002000402DE9F0414E
:10AD00000546164600790F46154A00EBC00102EBD6
:10AD1000810494F8201011B10820BDE8F081114998
:10AD200051F820102868FFF779FE08B11120F4E7E8
:10AD300039462846FCF7CAFA6660386920601EB1B9
:10AD4000397F2846FDF7B0FE28680821C0F80015B5
:10AD50000020A061E0610121606184F82010DCE73F
:10AD6000E835002000C302002DE9F05F04460079B9
:10AD70000E4600EBC001DFF8F0A017460AEB810594
:10AD80003046FFF743FEB0B168684FF000084FF45B
:10AD9000047910B12168C1F80893A8694FF0000B3D
:10ADA00080B1E86948B1686810B12068C0F80493C0
:10ADB0001120BDE8F09F1020FBE7EF614FF0010884
:10ADC0002E6102E0EE60C5E9067B00254FF4887134
:10ADD0002068FFF7D1FC4FF4A2712068FFF7CCFC8C
:10ADE0002068C0F83465C0F838752068B8F1000FE5
:10ADF00012D0D0F8001241F02001C0F800122079E2
:10AE0000D04600EBC0010AEB8100406838B12068F1
:10AE1000C0F804932846CCE701210160EFE74FF426
:10AE2000887A4FF4A27951462068FFF7A0FC0746C4
:10AE300049462068FFF79BFC06464FF49271206854
:10AE4000FFF795FC014647EA06000843EBD022795C
:10AE500002EBC20308EB8302C2F818B001B103256C
:10AE6000002ED7D00F25D5E7E83500202DE9F04793
:10AE700004460E460079204900EBC00001EB800536
:10AE800017463046FFF7C2FD30B1204600F036F8D5
:10AE900020B11120BDE8F0871020FBE76F61AE60A4
:10AEA0004FF49076002731462068FFF765FC4FF499
:10AEB000AC7841462068FFF75FFC2068AA686969A2
:10AEC000C0F84425C0F848152068012181606868F1
:10AED00078B9B14649462068FFF749FC0646414625
:10AEE0002068FFF744FC0643F4D000B10F27002090
:10AEF00068613846CEE70000E83500200079054952
:10AF000000EBC00001EB80004069002800D0012068
:10AF100070470000E83500202DE9F84F05460C4643
:10AF20000888B5F8CA1288427ED195F8C602DFF8C3
:10AF300024A100EB8001C1EB801005EB4006608886
:10AF40004FF0000B00285DD13079E288A71D8146C3
:10AF5000D1B250FA82F2062A02D80844307111E0C8
:10AF6000062030713C483D493288401AC108022011
:10AF700000EB014080463A49FEF780FF40463949E0
:10AF8000FEF778FF48460023D8461BE000EBC001DF
:10AF900006EB410203EB830107EB4101401CD1F8B2
:10AFA00002C0C2F80AC0D1F806C0C2F80EC0498972
:10AFB0005182A2F81480A2F81680A2F81880A2F894
:10AFC0001A805B1C31798142E0D895F8C61200EBFB
:10AFD000C00001EB8102C2EB811105EB410136F8A3
:10AFE0001000098988420DD2307906280AD085F8E8
:10AFF000C50221882846FDF7E9F901001AD085F835
:10B00000C7820BE085F8C5B25E46228869462846AD
:10B01000FDF7DCFA01000FD085F8C76222882846C8
:10B02000FDF7AEFB032100E004E08AF80010218860
:10B03000AAF80210BDE8F88F9DF800000028F9D0AA
:10B04000228801212846FDF753FB2188284600F07D
:10B0500063F9EFE7AC310020E0CE0200E0CE020061
:10B0600000C6020048C6020070B58D88027900EB68
:10B07000C5042273C97BA41D012902D0022904D171
:10B0800001E0008800E040882080218860888142BB
:10B0900011D92846A5DF0126B0B1112816D0FFF737
:10B0A0004BFB02460B480C49401AC00806EB004017
:10B0B0000AA1FEF7E3FEA179E079814208D928468A
:10B0C000BDE87040FDF71CBA6671F4E72671F2E73F
:10B0D00070BD0000E8CE0200E0CE020073645F6243
:10B0E0006C655F67617474635F65786368616E67E0
:10B0F000655F6D74755F726571756573742829205D
:10B1000072657475726E65642025732E00000000F0
:10B11000F8B505460C460888B5F8CA1288425DD1D4
:10B1200095F8C602A61D00EB8001C1EB801005EB6F
:10B13000400395F8C502618800EBC00003EB4000B6
:10B140000A3039B329E000BF01EB410206EB4202AD
:10B150009788B7F5245F0CD06FF4245C17EB0C07CD
:10B160000AD0012F02D0072F0BD108E0528842816C
:10B1700007E05288828104E05288C28101E052884F
:10B18000028242892AB182891AB1C2890AB1028A2D
:10B190001AB9491C32888A42D6D800268DF8006038
:10B1A00095F8C5021979401C884203D101208DF819
:10B1B000000018E085F8C502228869462846FDF798
:10B1C00005FA01000BD085F8C76222882846FDF7F2
:10B1D000D7FA0A480321017021884180F8BD9DF803
:10B1E00000000028FAD0228801212846FDF780FAC5
:10B1F0002188284600F090F8F8BD0000AC3100200E
:10B200007CB506468D88C88806EBC504A41D1728A2
:10B2100000D217202188814200D808466080002093
:10B22000207121882846B5DF60B1FFF785FA024614
:10B230000F481049401AC008012101EB00400EA13F
:10B24000FEF71CFE6079002810D1306900280DD06F
:10B250001549D1E90201CDE90001ADF8025060883D
:10B26000ADF8040032696946304690477CBD000065
:10B27000E8CE0200E0CE020073645F626C655F6737
:10B28000617474735F65786368616E67655F6D7420
:10B29000755F7265706C7928292072657475726E9D
:10B2A00065642025732E0000C4C2020070B50546F7
:10B2B0000C4690F8C602228800EB8001C1EB80109A
:10B2C00005EB4001B5F8CA02824222D1608848B13C
:10B2D00000212846FDF70CFA21882846BDE8704079
:10B2E00000F01AB8A2680A60E068C1F80600218878
:10B2F0002846FDF76BF801000BD0002085F8C70247
:10B3000022882846FDF73CFA024803210170218873
:10B31000418070BDAC3100202DE9F041044690F829
:10B32000C9020E46401C1949C0B284F8C902C96856
:10B330000327174D4FF0000E884224D284F8C5E24F
:10B3400094F8C602401CC0B200EB8001C1EB801132
:10B3500004EB410284F8C602A5F1180101EB80005C
:10B3600001210068106082F804E030469BDF010094
:10B3700007D084F8C7E232462046FDF701FA2F7065
:10B380006E80BDE8F08184F8C7E2F8E7C82C0020A1
:10B39000AC3100200449084490F93000082801DB52
:10B3A00001207047002070476035002004490844A0
:10B3B00090F93000082801D2012070470020704722
:10B3C0006035002010B50C46017A052908D0407A76
:10B3D00038B1084808A102682046FEF7B3F900E03A
:10B3E0001AB106A12046FEF7ADF92046BDE810408F
:10B3F000FEF7B5B9942D0020257300000D0A00005A
:10B4000038B5C3880D46044633B114A0009015A288
:10B4100016A12846FEF796F9217A05291CD0607AF4
:10B4200048B1A088FEF7E6FB164951F8202016A186
:10B430002846FEF787F9A0880021FEF7C9FD0346DC
:10B440001049207A143951F8202001B02846BDE86F
:10B4500030400EA1FEF776B938BD00001B5B306DA1
:10B46000000000001B5B313B33316D0025734C6FD6
:10B4700067732064726F70706564202825642925C5
:10B48000730D0A00942D0020257300003C25733EA7
:10B490002025733A200000000349884201D1034867
:10B4A000704700207047000000200040F42C00206E
:10B4B00070B50C4B00210A4ADC680DE002EB8105F7
:10B4C0008678AD78B54206D132F821500688B5426B
:10B4D00001D1586870BD491CA142EFD3002070BD56
:10B4E00094310020C82C002070B5012670044FF064
:10B4F000E0210025C1F88001084C4010C4F8480341
:10B50000C4F8080366602F20FFF772F9A660044CA8
:10B510002F20A560FFF76CF9A57070BD00100140E9
:10B52000202D002070B5054688690C4600284FF490
:10B53000847128460AD0FFF70EF9D5F81805626A1B
:10B54000E1688854606A401C606270BDFFF703F9CF
:10B55000D5F8180570BD1FB501238DF80030CDE971
:10B560000121D0E90012684690471FBD1FB5012395
:10B570008DF800308DF808100192D0E9001268466D
:10B5800090471FBD10B5044600684FF49271FFF755
:10B59000E2F84FF484712068FFF7DDF8206801219C
:10B5A000016010BD7FB5014603781548154A801A21
:10B5B000C008032202EB0040042B1AD0062B0ED049
:10B5C000072B0BD14968CA788D794C790B798DE8B6
:10B5D0003C008B784A780CA1FEF76DFC7FBD486873
:10B5E0000028FBD004B014A2BDE870408721FAF710
:10B5F00011BE15A1FEF73EFCBDE87F4000F060B82B
:10B6000038CF0200E0CE0200436F6E6E656374694E
:10B610006E6720746F207461726765742025303204
:10B62000782530327825303278253032782530321E
:10B6300078253032780000002E2E5C2E2E5C2E2EC7
:10B640005C6D61696E2E63005363616E2074696D79
:10B650006564206F75742E001FB500200090019066
:10B660000290039001208DF804008DF80C00104A20
:10B6700069461048FDF780FE18B10F4AB221FAF76B
:10B68000C9FD0E4A03210B48FDF733FE18B10A4AE3
:10B69000B521FAF7BFFD002204210648FDF751FE4F
:10B6A000002803D0044AB821FAF7B4FD1FBD0000FA
:10B6B000A5B50200D8300020AC8E0200F8C102000F
:10B6C00010B50A48FDF762FF18B109A27521FAF713
:10B6D000A1FD0120FCF764FC002805D0BDE8104066
:10B6E00003A27821FAF796BD10BD0000D8300020E3
:10B6F0002E2E5C2E2E5C2E2E5C6D61696E2E6300EC
:10B7000038B50021012548B101280CD0032809D102
:10B71000FFF738F8BDE83840FDF7A8BF4FF0E0204C
:10B72000C0F8805138BD8DF800106846FBF74CFD1D
:10B73000064C207808B9FDF77DFFE068401CE0600A
:10B74000A5709DF80000FBF763FD38BD4C35002067
:10B750003EB5044609496846FEF7AAFF08E000BF67
:10B76000D0E900212046904730B16846FEF7B7FF88
:10B7700002980028F4D13EBD11203EBDE8C402006D
:10B780003EB5044608496846FEF792FF07E000BF51
:10B79000D0E90021204690476846FEF7A0FF0298B6
:10B7A0000028F5D13EBD0000F4C402002DE9F041AF
:10B7B0001400884618D000250E4F032608EB05011B
:10B7C00022460020FAF7B0FF0544241A40B9387821
:10B7D000002809D008494FF47A408847761E05D0E2
:10B7E00001203870002CE9D1BDE8F08100203870CC
:10B7F000FAE700005C2D0020C1C4020010B5044629
:10B800000020FCF7CDFB20B107A240F27D11FAF732
:10B8100001FD3CB9FCF724FB20B103A24FF4C27137
:10B82000FAF7F8FC012010BD2E2E5C2E2E5C2E2E79
:10B830005C6D61696E2E630070B5194D194C07E09F
:10B84000016820788847002829D01548FEF747FF6F
:10B85000A8680028F4D1FEF7C9FB00BFFEF7F0F995
:10B860000028FBD1207803280CD002280AD0FEF74C
:10B87000D9FE00B133DF0C4901200860BFF34F8FC0
:10B8800020BFFDE7BFF34F8F08480168084A01F465
:10B89000E06111430160BFF34F8F00BFFDE770BD52
:10B8A00084370020502D0020000500400CED00E002
:10B8B0000400FA05002805D1034901204870002042
:10B8C000FCF7A6BD704700004C35002010B51620CF
:10B8D000FBF796F9A0B1124890F800044009082837
:10B8E00011D20121814011F0EC0F0CD00D4882687B
:10B8F0004FF480017AB1016841F48001016010BD0C
:10B9000042F2010001E042F20200BDE8104006A24E
:10B91000A121FAF77FBC4FF0E020C0F8001110BD64
:10B9200016E000E0783700202E2E5C2E2E5C2E2EA6
:10B930005C2E2E5C2E2E5C2E2E5C636F6D706F6EF7
:10B94000656E74735C736F66746465766963655C59
:10B95000636F6D6D6F6E5C6E72665F7364682E638D
:10B96000000000002DE9F84F204D9246894606461A
:10B970009846012269461846AF68FCF74FFC58B359
:10B98000009800210446801C09E000BF00EA07037C
:10B990005AF8212005EB8303401C491CDA6041451D
:10B9A000F4D34FEA164AFCF737FF4AEA0041601C1D
:10B9B000384005EB80003C4005EB8402C160D06854
:10B9C00066F3C50068F3891069F39F2020F0030037
:10B9D000401C20F00400D06095F8200402E000BF75
:10B9E000FEF72EF90028FBD1BDE8F88F283900209A
:10B9F0002DE9F84F1D4C00256846D4E901A6FCF757
:10BA000015FF002738B30023009A61681CE0D1F8C5
:10BA100000C00846944503D9ACEB02020A6015E069
:10BA2000A2EB0C0263440760D0F80CC0C1698146E8
:10BA3000BCF1000F08D006EB030828F07F48C0E9EE
:10BA4000018CC9F81C5005460029E0D128466160E8
:10BA5000FDF7E4F803E02846FDF7E0F810B15046A2
:10BA6000FCF7F8FCE770BDE8F88F0000202D0020FF
:10BA70000D4B10B5596831B102680C68A24204D868
:10BA8000A21A0A60C161586010BD0B4603E00B4664
:10BA9000C969121B21B10C689442F8D3A41A0C6036
:10BAA0000260C161D86110BD202D00202DE9F04158
:10BAB000144E77683D462C4603E0844204D0254668
:10BAC000E469002CF9D11BE0D4B1A5420BD1F8698F
:10BAD000706040B90C49012088600021B160F070AD
